:10100000C07C0020751A0100735D0200611A0100A6
:10101000611A0100611A0100611A0100000000005C
:10102000000000000000000000000000511B010053
:10103000611A010000000000451D0100611A010055
:10104000BD1D0100FBA60200BD1D0100BD1D01006C
:10105000BD1D0100BD1D0100BD1D0100BD1D010024
:1010600011A70200BD1D0100BD1D010027A7020040
:10107000BD1D0100BD1D0100BD1D0100BD1D010004
:10108000BD1D0100BD1D0100BD1D0100BD1D0100F4
:10109000BD1D0100BD1D0100BD1D0100BD1D0100E4
:1010A000BD1D0100BD1D0100BD1D0100BD1D0100D4
:1010B000BD1D0100BD1D0100BD1D0100BD1D0100C4
:1010C000BD1D0100BD1D0100BD1D0100BD1D0100B4
:1010D000BD1D0100BD1D0100BD1D0100BD1D0100A4
:1010E000BD1D0100BD1D0100BD1D0100BD1D010094
:1010F000BD1D0100BD1D0100BD1D0100BD1D010084
:1011000080EA101404F0F01480EA0410604081EAD0
:10111000111404F0F01481EA0411614082EA1214FF
:1011200004F0F01482EA0412624083EA131404F01B
:10113000F01483EA0413634080EA102404F47F442B
:1011400080EA0420604081EA112404F47F4481EAAB
:101150000421614082EA122404F47F4482EA0422DA
:10116000624083EA132404F47F4483EA0423634047
:1011700081EA500404F0553480EA4400614083EA77
:10118000520404F0553482EA4402634082EA900437
:1011900004F0333480EA8400624083EA910404F06E
:1011A000333481EA84016340704700BF82EA9004CF
:1011B00004F0333480EA8400624083EA910404F04E
:1011C000333481EA8401634081EA500404F05534E9
:1011D00080EA4400614083EA520404F0553482EA14
:1011E0004402634080EA102404F47F4480EA04202F
:1011F000604081EA112404F47F4481EA04216140C3
:1012000082EA122404F47F4482EA0422624083EAE0
:10121000132404F47F4483EA0423634080EA101417
:1012200004F0F01480EA0410604081EA111404F024
:10123000F01481EA0411614082EA121404F0F014FF
:1012400082EA0412624083EA131404F0F01483EA81
:1012500004136340704700BF2DE9F14F94464FEAF5
:10126000930B8A68CB6808684968FFF749FF0BF160
:10127000060E33E083EA134480EA134582EA1347FB
:1012800046BA96EA3444604000F00F1684EA063409
:1012900020F00F1684EA161054BA94EA0106724040
:1012A00002F00F1486EA043622F00F1486EA1412B4
:1012B0004CBA6540694001F00F1485EA043521F00D
:1012C0000F1485EA14115CBA67407B4003F00F14D9
:1012D00087EA043723F00F1487EA1413BCE8F00000
:1012E0006040694072407B4000F0E03400F010350F
:1012F00000F00F3040EA540040EAC50080EA900454
:1013000004F0332480EA8400604001F0E03401F00E
:10131000103501F00F3141EA540141EAC50181EA7B
:10132000910404F0332481EA8401614002F0E03446
:1013300002F0103502F00F3242EA540242EAC502CE
:1013400082EA920404F0332482EA8402624003F0C9
:10135000E03403F0103503F00F3343EA540343EA5B
:10136000C50383EA930404F0332483EA84036340CF
:1013700081EA324787EA134581EA354690EA060456
:1013800084EA034B82EA1B4280EA044484EA05446F
:1013900083EA144A85EA14448BEA044B84EA37440E
:1013A00081EA0B4181EA164104EA0A00454082EADB
:1013B00004082BEA080041408AEA0B0602EA06000C
:1013C00084EA34438AEA3A4603EA0607784045400D
:1013D000414088EA38478BEA3B4007EA000985EA42
:1013E000090583EA0709464006EA0906714085EACD
:1013F000010005EA3546464006EA314181EA3041BE
:1014000081EA364606EA304686EA3546344008EA3E
:10141000010886EA01052A4086EA364003405A4020
:1014200081EA31431F407C4080EA030709EA07094B
:1014300088EA0908544088EA020806EA0A0601EA2E
:101440000B018AEA0B0215408AEA3A4210404540F5
:101450008BEA3B4003405E404240174079404D409C
:101460004E40E443F64386EA18435D4085EA054072
:1014700083EA134386EA034183EA384284EA11434C
:1014800083EA04435FEA3343BEF1010E3FF6F2AE56
:101490001ED4BCE8F0006040694072407B4020BC34
:1014A000FFF784FE28606960AA60EB60BDE8F08FFA
:1014B0002DE9E0414FF2F00280EA1031114080EA5C
:1014C0000130484041088208C3084FF0000E4FE742
:1014D00000F0113001F0113102F0113203F011333C
:1014E00040EA410040EA820040EAC3004FF2F002C5
:1014F00080EA1031114080EA01304840BDE8E081C7
:101500002DE9F04F02F11C050646074600EB850861
:1015100051F8040B043A46F8040BF9D14FF0010CD2
:10152000FFF7C6FF5FEA302080EA0C001ECF414083
:101530004A4053405C401EC62000464517D04FEA43
:101540004C0C1CF4807F18BFACF1E50C2C2DE7D0BF
:101550003C2D06D1FFF7ACFF06CF41404A4006C6FE
:10156000100006CF41404A4006C61000D8E736E9D1
:101570000F00FFF7C5FD043D86E80F00F7D1BDE879
:10158000F08F00BF2DE9F14F03F11C0402EB840C36
:101590004FEA930B8A68CB6808684968FFF7B0FD8B
:1015A0003CE9F0006040694072407B400BF1060E60
:1015B0004EE083EA134480EA134582EA134746BAB1
:1015C00096EA3444604000F00F1684EA063420F0B6
:1015D0000F1684EA161054BA94EA0106724002F01B
:1015E0000F1486EA043622F00F1486EA14124CBA5D
:1015F0006540694001F00F1485EA043521F00F14AD
:1016000085EA14115CBA67407B4003F00F1487EA47
:10161000043723F00F1487EA141344BA44404DBA38
:101620004D4056BA56405FBA5F4087EA174886EA8F
:10163000174B84EA17464FEA38488BEA1B4485EA81
:101640001B4788EA1B4580EA3440694072407B4072
:1016500000F0703400F0803500F00F3040EA4400B4
:1016600040EAD50080EA900404F0332480EA840044
:10167000604001F0703401F0803501F00F3141EA33
:10168000440141EAD50181EA910404F0332481EA5E
:101690008401614002F0703402F0803502F00F32B4
:1016A00042EA440242EAD50282EA920404F0332478
:1016B00082EA8402624003F0703403F0803503F064
:1016C0000F3343EA440343EAD50383EA930404F067
:1016D000332483EA84036340C943DB4381EA000483
:1016E00083EA044686EA020183EA014382EA33453B
:1016F00083EA14435C4084EA00077FEA040A8AEA2A
:10170000024A8AEA010B87EA11488AEA374A80EAE4
:10171000060181EA1A418AEA030A04EA0A004540FE
:1017200088EA040707EA0B0041408AEA0B0608EA48
:10173000060084EA34428AEA3A4602EA060358403E
:101740004540414087EA37438BEA3B4003EA0009C2
:1017500085EA090582EA0309464006EA090671405E
:1017600085EA010005EA3546464006EA314181EA4C
:10177000304181EA364606EA304686EA354634404C
:101780000F4086EA010508EA050886EA364002406D
:1017900088EA020881EA314213405C4080EA020391
:1017A00009EA030987EA0907674088EA040806EAA4
:1017B0000A0601EA0B018AEA0B0425408AEA3A4448
:1017C000204045408BEA3B4B02EA0B02564084EA3C
:1017D0000B04234059406E40694087EA364080EA56
:1017E000384080EA060380EA104481EA134585EA1E
:1017F000344585EA17427D4082EA354180EA05405A
:101800003CE9F0006040694072407B40BEF1010E4F
:101810003FF6CFAE20BCFFF7C9FC28606960AA6024
:10182000EB60BDE8F08F00BFFFF76ABE2DE9F0075F
:1018300091E8F807B2E802105B1854EB0C04B2E828
:1018400002104D4156EB0C06B2E802104F4158EB26
:101850000C08B2E8021059EB01095AEB0C0A80E8B7
:10186000F80780410130BDE8F00770472DE9F00727
:1018700091E8F807B2E802105B1A74EB0C04B2E8C6
:1018800002108D4176EB0C06B2E802108F4178EB26
:101890000C08B2E8021079EB01097AEB0C0A80E837
:1018A000F80780414042BDE8F00770472DE9F00796
:1018B000524290E87800B1E880071740DB1918EA37
:1018C000020854EB080419EA020955EB09051AEA63
:1018D000020A56EB0A0678C090E87800B1E8800763
:1018E00017407B4118EA020854EB080419EA020980
:1018F00055EB09051AEA020A56EB0A0678C0804140
:101900000130BDE8F00770472DE9F007524290E83A
:101910007800B1E880071740DB1B18EA020874EB77
:10192000080419EA020975EB09051AEA020A76EBBE
:101930000A0678C090E87800B1E880071740BB41FC
:1019400018EA020874EB080419EA020975EB0905A4
:101950001AEA020A76EB0A0678C080414042BDE8E6
:10196000F00770472DE9F00152424FF0040890E86B
:10197000300091E8C000A31B1340E41AF618EB1BDB
:101980001340ED1AFF1830C0C0C1B8F10108EED104
:10199000BDE8F001704700BF00B592E8DC072DE913
:1019A000DC07B1E8805702B4A7FB02510A95A8FBF7
:1019B000020BE7FB6310E9FB62B00B91A8FB03513C
:1019C000EAFB6201E7FB64B5E7FB6605E8FB661529
:1019D000CDF830B0A9FB03B6EAFB6316ECFB635607
:1019E000E8FB640BE9FB641BEAFB645BECFB646BE8
:1019F0000D90ACFB0230059CEEFB6250E9FB64608D
:101A0000EAFB64B0E7FB6431E8FB6451069CE8FB49
:101A10006461E9FB64B1EAFB64010E93A7FB043245
:101A2000079CE7FB6462E8FB64B2E9FB6402EAFB43
:101A30006412049CE9FB6453EAFB6463089CE7FBC3
:101A400064B3E8FB6403E9FB6413EAFB64230F95CA
:101A50005DF8049B99E80006DDF80080A9FB0854B6
:101A6000EAFB68B4DDF81080ECFB6804EEFB681458
:101A7000E9FB6824EAFB6834DDF80480EEFB686566
:101A8000E9FB68B5EAFB6805DDF81480ECFB681536
:101A9000EEFB6825E9FB6835EAFB68450F96DDF843
:101AA0000880AEFB0876E9FB6806EAFB6816DDF8FD
:101AB0001880ECFB6826EEFB6836E9FB6846EAFB1B
:101AC0006856DDF80C80ECFB68B7EEFB6807E9FBB5
:101AD0006817EAFB6827DDF81C80ECFB6837EEFB33
:101AE0006847E9FB6857EAFB686708B000BD00BFBC
:101AF0002DE9F14F87B0FFF74FFFDDF81C8008F1AB
:101B0000200888E8FF00FFBC87E87F08BDE8F08F69
:101B100000B591E89857A3FB03520195A3FB04017C
:101B2000E3FB6420E3FB67100292A3FB0752E3FB95
:101B30006802E4FB6415E3FB6805E3FB6925039198
:101B4000A4FB07B6E3FB6926E3FB6A56E4FB670BDD
:101B5000E4FB682BE3FB6A5BE3FB6C6B0490A4FB88
:101B60000810E4FB6950E3FB6C60E3FB6EB0E7FB3D
:101B70006721E4FB6951E4FB6A61E3FB6EB1E4FBBE
:101B80006E010592A7FB0832E4FB6A62E4FB6CB2CB
:101B9000E4FB6E02E7FB6E12E7FB6853E7FB696349
:101BA000E4FB6CB3E7FB6C03E7FB6E13E8FB6E230F
:101BB0000695A7FB0954E7FB6AB4E7FB6C04E8FB56
:101BC0006C14E8FB6E24E9FB6E34E8FB6865E7FB08
:101BD0006AB5E8FB6A05E8FB6C15E9FB6C25E9FBD7
:101BE0006E35EAFB6E450796A8FB0976E8FB6A06A8
:101BF000E9FB6A16E9FB6C26EAFB6C36EAFB6E46EB
:101C0000ECFB6E56E8FB69B7E9FB6907E9FB6A176D
:101C1000EAFB6A27EAFB6C37ECFB6C47ECFB6E5780
:101C2000EEFB6E6700BD00BF2DE9F14F87B0FFF7F7
:101C30006FFFDDF81C8008F1200888E8FF00FFBC7A
:101C400087E87F08BDE8F08F30B44FF0000310F84C
:101C5000014B11F8015B013A84EA050443EA0403ED
:101C6000F5D1A3F101034FEAD37030BC704700BF38
:101C70004FF0000310F8012B013943EA0203F9D1B8
:101C8000A3F101034FEAD370704700BF30B411F8DD
:101C9000014B12F8015B6C4000F8014B013BF6D19F
:101CA00030BC70472DE9F00791E8F807B2E8021060
:101CB0005B1854EB0C04B2E802104D4156EB0C06D5
:101CC000B2E802104F4158EB0C08B2E8021059EB91
:101CD00001095AEB0C0A8941B3F1FF3374F1FF3467
:101CE00075F1FF3576F1000677F1000778F100080D
:101CF00079F101097AF1FF3A51F100015B184C4189
:101D00004D4156F1000657F1000758F1000859EB14
:101D1000D1795AEB010A80E8F807BDE8F00770476F
:101D20002DE9F00791E8F807B2E802105B1A74EBAE
:101D30000C04B2E802108D4176EB0C06B2E80210FA
:101D40008F4178EB0C08B2E8021079EB01097AEBCD
:101D50000C0A89415B184C414D4156F1000657F180
:101D6000000758F1000859EBD1795AEB010A80E8D5
:101D7000F807BDE8F007704718EB040859EB0509B0
:101D80005AEB060A5BEB070B5FF0000C4CF1000C02
:101D900018EB050859EB06095AEB070A5BEB070B32
:101DA00050EB0C005FF0000C51EB0C0152EB0C02FD
:101DB00063414CF1000CB8EB070879F100097AF1A6
:101DC000000A7BEB040BA841B141A241B3416CF185
:101DD000000CBBEB050BB041B941AA41BB416CF112
:101DE000000C4CF001068CF0020718EB060859EBCA
:101DF0006C095AEB6C0A7BEB6C0B70EB6C0471EBAF
:101E00006C0572EB670653EB6C076CEB6C0C18EB14
:101E10000C0059EB0C015AEB0C025BF1000354F17E
:101E2000000455F1000556EBDC7657EB0C077047C4
:101E30002DE9F14F87B0FFF7AFFDDDF81080DDF839
:101E40001490DDF818A0FFF797FFBDE8000FFFF72B
:101E500093FF03B05DF8048B88E8FF00BDE8F08FC6
:101E60002DE9F14F87B0FFF753FEDDF81080DDF864
:101E70001490DDF818A0FFF77FFFBDE8000FFFF713
:101E80007BFF03B05DF8048B88E8FF00BDE8F08FAE
:101E9000054B1B780022013382600260034A4260D6
:101EA000C371FF2303727047600B002020010800FC
:101EB000064B074A9B7802604FF416728280C3710A
:101EC0000822002382710372704700BF600B00205C
:101ED00003EC0000F8B5C71D002827F007070546EA
:101EE00014BF3846002000F06FFA041E02DA6FF0CB
:101EF0000B00F8BD2E4EF188B088737A327A033128
:101F0000033089B280B20AF045FA0028EFDBB178DD
:101F1000F37827440337002D194427F0030700FB0B
:101F200001F114BF3846002000F0D4FB07440DB97E
:101F3000002FDCDB01203C4600F03CFA90B1F17A46
:101F400081B10737002D27F0070414BF2046002079
:101F50002523282204F096FB0028C8DB04440DB991
:101F6000002CC4DBB37AABB1012000F023FA88B1B6
:101F7000F37A7BB10734002D24F0070414BF204608
:101F80000020B17A03F0A0F90028B0DB04440DB9B9
:101F9000002CACDBF3683BB115B1F4600020A8E77E
:101FA0002834A4D42046A4E7002DF7D1FAE700BFD7
:101FB000600B00201FB572B6194B1D69EDB9BFF358
:101FC0004F8F1849184BCA6802F4E0621343CB6084
:101FD000BFF34F8F00BFFDE72346B2FBF6F25C1C58
:101FE000002AF9D104AEDCB256FA83F303F80C2CC4
:101FF0000A2234B901A8A847E1E7024600230A26CD
:10200000EDE7631E04AEDCB256FA83F3B0FBF2F6E2
:1020100002FB1600303003F80C0C3046E9E700BF35
:10202000600B002000ED00E00400FA0507B50A4B44
:102030001A89ADF800206846DA889B88ADF804203C
:10204000ADF8023001F0ACFE18B1FA219C20FFF788
:10205000B1FF03B05DF804FB600B002010B504462F
:1020600020B309F0B3FA10B94FF0FF3010BD07F0FC
:10207000A3FAB0F5FA7FF7D80E4B00221A751A7042
:10208000DA6001225A801B229A80DA8040F2032211
:102090001A814FF442721C615A81EFF3108472B6B8
:1020A00000F08AFB04B962B60020DFE76FF015008C
:1020B000DCE700BF600B002038B51446002847D18C
:1020C000254D2B7D032B40D071B112B96FF0150057
:1020D00038BD013906293BD8DFE801F0043A133A4C
:1020E000293A32001378AB700020FFF7F3FE002886
:1020F000B7BF012302232B756FF00B00A8BF2B7510
:10210000E6E71379002BE1D05379002BDED012885B
:10211000FB2ADBD863881B3B9BB2E02BD6D81A2A5C
:10212000D4D923686B600D4BA2889A80DCE701202C
:1021300000F040F9237808B1012BC7D9EB72D3E73F
:102140001388FF2BC2D8AB72CEE74FF0FF30BFE74A
:102150006FF02C00BCE700BF600B0020640B002078
:10216000F8B50D46064620B319B311F0070420D187
:10217000114F3B7D012B02D16FF00B00F8BD032BFB
:1021800002D14FF0FF30F9E700F052FB0028F8D001
:102190002846FFF79FFE0028EEDB0CF080FD30465E
:1021A000F96801F079FEFFF741FF03233B752046F4
:1021B000E4E76FF01500E1E7600B002010B5064C76
:1021C000237D032B03D101F07FFE02F0A1FB0AF077
:1021D00036F90020207510BD600B002008B501F015
:1021E0003DFE0549012000F0DDF8BDE80840034947
:1021F000002000F0D7B800BF911E0000B11E000003
:10220000074B4FF0FF3141F6FF72C3E90012054959
:102210000022C1E900221F21C3E90212704700BF5A
:1022200000000020780B00203F280CD801380B4B11
:10223000C0F3421200F01F0053F8223023FA00F0DE
:1022400000F001007047FF2806D04038C0F342126A
:10225000034B00F01F00EFE7012070470000002053
:10226000780B00200146074B006849681A4603C2F4
:1022700040F48C221A6041F0107242F4FF625A60FE
:1022800000207047000000200246034B00685168A0
:1022900003C30020704700BF780B00200246034BA9
:1022A0000068516803C30020704700BF0800002089
:1022B0000138064BC0F3421203EB820300F01F000B
:1022C0009B6823FA00F000F0010070470000002036
:1022D000F0B50C88C37C0288A5B2C4F30E0404F1E7
:1022E00018060233865B1A44334497B213FA82F31A
:1022F000013B4288B3FBF7F313FB07439BB29A42BF
:10230000044A93BF22EA05032A4013439BB20B8081
:10231000F0BD00BF0080FFFF4A1E062A08B5034635
:10232000084604D84FF4D1711520FFF743FE094A3F
:10233000914202D940F2A311F6E711B903B1196035
:1023400008BD2BB11B680022C3E901211A1D1A60C8
:102350000430F5E7FAFFFF7F10B5114B00EB4104A5
:102360001A786389B3FBF2F303FB0223013A1A44A0
:10237000B2F5706F0279807828BF00231A440B18D9
:10238000B2FBF0F100FB11215B1AB3FBF0F100FB93
:10239000113313446FEA43436FEA5343638110BD23
:1023A000800B0020024B03EB80035960704700BF95
:1023B000800B0020034B03EB80035868003818BFE4
:1023C00001207047800B00202DE9F04F10F0070A24
:1023D00085B0054604D040F26F111720FFF7EAFDE3
:1023E000534F07F10C06B1460446B04657F8043B7C
:1023F0008DF80BA03BB101A898479DF80A30082B37
:1024000001D9F521E9E79DF80B1041BB05B1316019
:102410004F4506F10406E9D1002D70D0DFF8149184
:10242000002289F800209646022758F827A0013F8D
:10243000BAF1000F56D09AF804609AF802C0FF2E45
:1024400061D039460023481C39D19C44BCF1FF0FB0
:1024500040D90AB189F800E04FF49A71BDE79DF8C0
:102460000AC06046022838BF02204B1D5A0004EB08
:102470004303441E2344BDF808406444013CCCF1AE
:10248000000C04EA0C044042B4F5803F03EA000368
:1024900002D340F20511A0E775B19A1A012032600B
:1024A00091701480D0709DF80C001071019810810B
:1024B0004FEA104CA2F806C004FB0134A8E758F814
:1024C000210028B190F804B0B34504BF80781B18F0
:1024D0000139B8E7DBB2E6458AF804303CBF5FFA61
:1024E0008CFE01227B1CA0D10AB189F800E00226F3
:1024F00040F6FF6A58F82670B7B9013EFAD2601B61
:1025000005B0BDE8F08F0023E5E707EB410338464F
:10251000A3F80AA0FFF720FF09F10109BB785FFAD1
:1025200089F18B42F1D8E8E74FF00009F6E700BFE8
:10253000840B0020800B002038B54FF6FF7303801A
:10254000184B03EB810302461869A8B1847803791C
:10255000B3FBF4F104FB1133DBB2194600EB410588
:10256000B5F90A50002D0EDB0131B1FBF4F504FB87
:102570001511C9B28B42F1D1002038BD6381BDE88D
:10258000384009F0E3BE00EB41046389C3F30E0356
:102590001380C278002AF1D14FF4E5711720FFF7BC
:1025A00009FD00BF800B00201C4B03EB810370B5BD
:1025B0001C69054644B3030404D54FF4EC7117209D
:1025C000FFF7F8FC0146204609F0A2FEFF2801466D
:1025D00004D02046BDE8704009F0B8BEA078B5FB35
:1025E000F0F300FB1353DBB219460A1D04EB42065D
:1025F000B6F90260002E09DB0131B1FBF0F200FBFD
:102600001211C9B28B42F0D1002070BD8B4201D0B3
:102610000023E37004EB42025580DAE7800B0020D0
:10262000094B03EB810310B51C690146204609F0F4
:102630006FFEFF28014604D02046BDE8104009F097
:1026400085BE002010BD00BF800B0020F8B5104BE8
:1026500003EB810307461C690146204609F058FE3A
:10266000FF28054611D0E288238953EA024606D0A6
:102670000146204609F06AFE01463846B04720462A
:102680002946FFF769FE0020F8BD0520FCE700BFE2
:10269000800B002038B50E4B827903EB8203044691
:1026A000186908B9052038BD8278E1799142F9D2DC
:1026B0004B1CE37100EB41035D89B3F90A30002B39
:1026C000F3DBA58009F042FE20600020EBE700BFAD
:1026D000800B002070B5044610F003000E4603D0B6
:1026E0004E211820FFF766FCFFF716FE054624B1C1
:1026F000034831460460FFF70FFE284670BD00BF57
:102700009C0B00202DE9F14FDFF870B09DF828A058
:102710009DF82C901E46DBF8003007460D4690468B
:102720001BB960211820FFF745FC5246092140469D
:1027300009F073FC4A4684B20921304609F06DFC69
:1027400014FA80F1DBF8000009F0B6FD386018B922
:10275000286001B0BDE8F08F04442C60386853460F
:102760004146092209F01CFC28684B4609223146E3
:1027700001B0BDE8F04F09F013BC00BF9C0B002076
:1027800070B50E46044609F05BFC0546304609F07C
:1027900057FC044B2A1821461868BDE8704009F020
:1027A000B0BD00BF9C0B0020024B186808B109F0B7
:1027B00077BD70479C0B0020134B012200214FF086
:1027C000FF309A60C3F80012C3F80803C3F800157D
:1027D000C3F804259A60C3F80803C3F80015C3F8CA
:1027E00004250A490A4A03F580334FF40040C3F830
:1027F0000825C1F88000BFF34F8FBFF36F8FC1F87A
:102800008001C3F80825704700F0004000E100E0B7
:102810000000F63F024B02681A600020704700BFBC
:10282000A00B0020014B1B68184700BFA00B002025
:10283000024B1868003818BF01207047A00B002019
:102840000A468F2302F8033B0448C368C1F80330EB
:102850000369536043699360704700BFA40B002075
:10286000024B5A8C02435A845B6A1847A40B00201F
:10287000014B00215B6A1847A40B002010B5154CD2
:1028800005F02EFF06F01EF9208DFFF7F1FF237EE5
:1028900063B12246104952F80C3BE3606368536011
:1028A00004F11900A36893600AF043FF218DE06AE8
:1028B00002F060FEE36AB3F8AA0002F0BBFC636BAF
:1028C00094F8301094F831009847002384F8383099
:1028D00010BD00BFA40B002041280000034B93F85B
:1028E00038300BB1FFF7CABF704700BFA40B002000
:1028F00008B5094B93F83820022A04D040F257312A
:102900002720FFF757FBDA7A42F00102DA72BDE8BE
:102910000840FFF7B3BF00BFA40B002070B50F4DF8
:10292000EE6B3478C90001F0080104F0F304920062
:102930000C4302F0040214431B0103F0100304F0E3
:10294000EC041C4300F0030004433470B5F8483035
:1029500073700223A5F8403070BD00BFA40B0020A7
:10296000F7B5184CE56C06460DB1A36D23B940F6DA
:10297000C4012720FFF71EFBB4F85C306B702B7886
:102980002F4601F0030123F003030B4307F8033B39
:10299000B4F85C20A16D384609F0D6F80DF10202BA
:1029A00001A9206E2565A76509F070FC019809F062
:1029B0005BFCB4F85C1030600122206E09F003FC6F
:1029C00003B0F0BDA40B00202DE9F341694CE56A8A
:1029D00095F8141150B92A7D94F8673003EB8203FF
:1029E000FF2B03D195F815318B4202D0FF2005F063
:1029F000EBFBE66A00238DF80130ADF80230337A44
:102A0000062B00F2A380DFE803F0047F8282A1940A
:102A1000940094F86830A6F804310DF1020101A881
:102A2000ADF8023001F0ECFA30B1019820B1052385
:102A30003372BDF8023013E0E36A93F85130002B93
:102A40005DD1E06E0DF101020DF1020109F01FFBF5
:102A5000002854D0BDF80230002B41D1012232723F
:102A6000E063A4F8483003B1C31C6364777A96F836
:102A70000A80367A022E07D0053E012E69D81B78CF
:102A8000022B4FF0030666D0E06E09F05BFB0346B5
:102A9000002862D1032E04D001F0CCFA80F00103AB
:102AA000DBB203F0010284F87020EA7C002A56D0E1
:102AB000B4F84820002A52D0394642463046FFF743
:102AC0002DFF606F05F04CFDE16B606F05F09CFF22
:102AD000012384F8783084F8383002B0BDE8F08102
:102AE0009DF801201AB9028082700323A0E70278C2
:102AF00002F00302012A0CBF03220222AFE70023E7
:102B0000ADF80230012333721B480023A8E7B6F862
:102B10000431E06EADF802300DF101020DF1020159
:102B200009F0B5FA002884D140F2C3512720FFF7FD
:102B300041FA0DF1020101A801F062FA08B1019811
:102B400010B940F2D251F1E7062371E740F2DC51AF
:102B5000ECE7012698E70023A3E70123A1E742461B
:102B600039463046FFF7DAFEE06B05F0F9FC05F078
:102B7000A9FFADE7A40B0020080C00202DE9F041CF
:102B8000404C94F83830012B86B006460F465FFA69
:102B900083F804D040F60C112720FFF70BFAE56A02
:102BA0002B7923B1002129710420FFF759FE2B7ADC
:102BB000052B03D134490220FFF752FEE6B9DFB1FD
:102BC000E36F30469847B8B194F83030A3B92B7D05
:102BD000E76A0BB397F8150194F867C00128D5E9A7
:102BE0001E2305F1800105F190050AD0022809D0C5
:102BF00040F225410620D0E706B0BDE8F041FFF7DE
:102C00003DBEB04600260120CDE90460CDE902C8F2
:102C1000CDE9006505F090FE9621012097F8152179
:102C20000CF0A7F8E56AD4F8803023654FF481737F
:102C300094F86700A4F854302B7D95F8151100EB3B
:102C40008300FF2803D195F814318B4201D005F0A1
:102C5000BBFA2B7D7BB1606F05F082FC616F206D4C
:102C600005F00CFF002005F0E5FC022384F8383065
:102C700006B0BDE8F081206D05F072FC05F022FF82
:102C8000F0E700BFA40B0020E80B00202DE9F04F77
:102C9000A14C85B00022CDE90222D4F82CB094F8E2
:102CA00038200BF1A803022A05460F46019304D0F1
:102CB00040F6AD112720FFF77DF9226D032092F831
:102CC00000A05178A4F85C1002440AF00308A4F8AC
:102CD0005400A265002D00F00A8119B1206E09F0A0
:102CE00052FA0146E1649BF80910228D0131C9B204
:102CF00081EA9A0642F4007216F00106228541D15B
:102D00009BF8082022B3032A8BF8091009D8012A5E
:102D10001ED0E06E02A909F0DFF990B940F2D4713B
:102D2000C8E7053A012A02D940F2B371C2E701F0BF
:102D300075F910B940F2DE71BCE731460820FFF7A3
:102D40008FFDDBE91C21013241F10001CBE91C219F
:102D5000228D002642F400628BF8086022859BF8E1
:102D60001420CAF3C009D2B1B4F85C20BAB105F09E
:102D7000C1FE0328FBD0022806D1FFF77FFD05B076
:102D8000BDE8F08F2E46EAE748B99BF80A2002F02A
:102D900001024A4503D1012384F83130EDE79BF865
:102DA0000A0000F00102914555D04FF00009E26C95
:102DB000002A40F0AE80B4F85C20B2FA82F25209E8
:102DC00002EA1A1284F88720002F00F0AB8005F089
:102DD00087FCB9F1000F40F0DA800127238D5A06F5
:102DE00006D44020FFF744FD238D43F040032385A4
:102DF00026B1B4F809300133A4F80930002D00F0F1
:102E0000CB80B4F805300133A4F80530002384F8F2
:102E10008630424802F0FCF9029830B109F024FAF9
:102E200000220272019901F07BFE039B33B1002264
:102E30001A720C220199039801F040FE002F9CD1D8
:102E4000238D1B069BD48020FFF712FD238D43F0BA
:102E50008003238593E7B4F85C20E2B108F1FF31E9
:102E6000012918D8218D41F48051218594F88410CE
:102E7000914206D294F8302042F0100284F83020BB
:102E800093E7E16C002990D094F8851019B12020C7
:102E9000FFF7EEFC89E70130B8F1030F8BF80A0069
:102EA0001AD008F1FF3101290BD8002A3FF47DAF79
:102EB000DBE91E21013241F10001CBE91E21A946C7
:102EC00075E7002A3FF471AFDBE91E21013241F1C1
:102ED0000001CBE91E2168E7228D1149012042F44F
:102EE00080528BF804002285FFF7BAFCECE79BF8D0
:102EF00014200AB105F03AFE94F88620013284F8D5
:102F00008620228D4FF0000942F4806222854E46D1
:102F10004DE7012254E700BFA40B0020D00B002096
:102F2000FC0B002094F88620012A3FF650AFE26F98
:102F30000120904700283FF44AAF94F83020002A3F
:102F40007FF445AF628C002A7FF441AF94F8702083
:102F500022B994F88720002A3FF439AF9BF8132058
:102F60001AB10198594609F06CFA00209BF8142117
:102F700096210BF0FEFE0020FFF726FDB9F1000FB1
:102F80003FF42CAF414603A8FFF7EAFC26E7414691
:102F900003A8FFF7E5FC20E7B4F807300133A4F8F5
:102FA000073036E710B5064B93F8382002F0FF04DF
:102FB00022B91C7602F0D6FA204610BD0C24FBE79D
:102FC000A40B00200A4B0B4A10B51A60FFF7EAFF6A
:102FD00020B14FF4B1712720FEF7ECFF00F084FF21
:102FE000054CC4F8800000F083FF606710BD00BF8F
:102FF0006C15002074310000A40B0020F8B55A4C69
:10300000054694F8380000F0FF0610B909B102B186
:1030100023B94FF420712720FEF7CCFF63639DF89E
:1030200018306162E26784F88530E56284F83060C8
:1030300084F8866084F8316084F878606684268538
:1030400084F8706084F88760E6636664A4F848607A
:103050002665A665A4F85C6005F0E6F805F032FD8B
:1030600095F91C0105F02AF9D5F8D070D5F8C800FB
:1030700005F02AF9384605F065FA95F8240005F0C0
:103080002DF90AF0A8FF95F81421384B33F81230C7
:103090004FF47A7103F5FA73B3FBF1F36633191841
:1030A000304605F089F9324B186805F051FAD5F829
:1030B000BC30E366D5F8C0302366AB7B233B072BDF
:1030C0004FD9EB7B233B072B4BD9B5F8E630B5F84E
:1030D000EC0095F81411984228BF18460AF018F928
:1030E00095F8E830834228BF034698B295F8E4305B
:1030F000984200D3C3B295F8151184F8683005F1F1
:10310000DC000AF08DFB2F7D95F81511B5F8F06005
:103110000AF0FEF80FB9043080B2864228BF064696
:10312000F3B284F8843084F86730EB7C23B129460D
:1031300005F1A80009F085F90120FFF745FC0023FF
:1031400023606360A360EB886380B5F8AA302380B6
:1031500095F824302371D5F818310BB101221A608B
:10316000F8BD1B23C7E700BFA40B0020CCCD020095
:103170006C150020F12800008D2C00007D2B000034
:10318000DD28000010B5044609F084F908B90020D4
:1031900010BDE04309F07EF90028F8D0E31683EA79
:1031A000A4635A1E1A42F2D020460AF02EFC1828B8
:1031B000EDD8A3B2B3EB144F04D184EA142313F077
:1031C000FF1FE4D0034B6340581E1840003818BF5F
:1031D0000120DDE7D6BE898EF0B5070CA7F5AA421F
:1031E000144B543A012A03EA90231FD927F40040D4
:1031F00042F6AA22801A18BF012000221621164684
:103200001F2487EA060562EA0505013510D0DD03B3
:10321000ADB245EA5606E503ADB2013945EA5202C0
:103220004FEA53034FEA5404EBD1F0BD0020E4E72A
:103230000020FAE7E0FF3F0010B5044608480BF015
:1032400010F9204607490BF078FA20460BF071F888
:1032500020B1204603F046F8002010BD1220FCE704
:103260004C0C0020540C0020304BF0B55A89B0F8BB
:103270006070B0F85E609D89974228BF17469642FD
:1032800028BF16461B2E85B00C462ED0B5F5A47F60
:103290002DD040F648039D4201A928BF1D4609F0E4
:1032A00086F9BDF80A30BB4228BF3B46E380BDF833
:1032B0000C30AB4228BF2B462381BDF80630B34209
:1032C00028BF33466380BDF80830AB4228BF2B4689
:1032D000A380FF232370E3881B3B9BB2E02B08D91C
:1032E00040F209513920FEF765FE1B2FCED105B003
:1032F000F0BD63881B3B9BB2E02B02D940F20B511F
:10330000F0E72389A3F5A4739BB2B3F5E06F02D96C
:1033100040F20D51E6E7A388A3F5A4739BB2B3F581
:10332000E06FE4D940F20F51DCE700BF2C0C002025
:10333000014BD888704700BF2C0C0020044BD87C70
:10334000C0F3400080F0010000F00100704700BFB2
:103350002C0C002008B509F011FF01F001F800F075
:10336000E7FD0AF0BEF901F0C1FF01F0F9F904F040
:1033700021FC0E4B0E4800221A600E4B4FF01B1121
:103380001A801A82DA740C4AC3E901014FF4A4715D
:103390001068D960083212F8041C186283F82410EF
:1033A00007CA283383E8070008BD00BF7015002056
:1033B00003021B002C0C002070CC0200044B41F6D1
:1033C0004C52C3E906221B229A74FFF7C3BF00BF09
:1033D0002C0C0020024B1B6803B118470C207047CF
:1033E00070150020014B93F9340070472C0C00201D
:1033F000034BDA8802801B7983700020704700BF7E
:103400002C0C002013B583781A2B044608D8042B03
:1034100004D9124A22FA03F3DB0705D4122017E07D
:10342000292B01D03B2BF9D12088B0F5706FF5D254
:1034300001A909F07CFF68B9019B93F8202102F0F3
:10344000FF004AB9A27883F82121FF2283F82021C6
:1034500002B010BD0220FBE70C20F9E72000380481
:103460000188A1F11B039BB2E02B0CD84288A2F586
:10347000A4739BB244F24810834204D8034B00204B
:1034800059819A8170471220704700BF2C0C002090
:1034900038B50278447802F0010354EA030102F0DF
:1034A000020201D1112038BDBAB98578002DF9D0BA
:1034B000002B18BF002400E01D46204609F044F808
:1034C0000028EFD0284609F03FF80028EAD0054B45
:1034D00000209C73DD731882E5E7002BECD00024FC
:1034E0002546EAE72C0C002013B5008801A909F055
:1034F00037FF044620B9019890F832311BB13A24C5
:10350000204602B010BD90F85C3003F0FF04002BA1
:10351000F5D190F853309B0703D1FF2380F8323167
:10352000EEE7024954300AF004F9E9E701DF000050
:10353000F8B50378032B054602D912242046F8BDBE
:103540004378032BF9D8467E0EB11124F6E7837831
:10355000012BF2D100F0E2FCC307F6D5AB7813F0F3
:10356000010414D0EA78012A3AD82A693E49A2F225
:103570005370884236D8AC686FF41C7CA4F6C41033
:10358000614488422ED8944234BF12240024980704
:1035900011D5EA78012A27D82A6934498A4225D8E0
:1035A000A9683348A1F6C41C84451FD8914238BF8E
:1035B00012262643F4B259071DD5EB78012B0CD8FF
:1035C0002B692B49A3F6C4128A4211D8AA68A2F625
:1035D000C41088420CD89A420DD244F01204ADE7D0
:1035E0001224D4E73024D2E71226E2E73026E0E7BF
:1035F00044F03004A2E7002CA0D12B7E013B062B27
:103600009BD801212046FFF70BF8064620B940F66B
:1036100042413920FEF7CEFC90300BF088F818B10B
:1036200096F854309A071CD1EA78A978A868B5F8BA
:1036300000C02E7E012A1ABFB2FA82F2520902227B
:10364000CB0748BF2F690B4BC3E90B0783F820104A
:1036500083F82120A3F822C083F8246083F828107F
:103660006CE70C246AE700BF3CF670028FFD700225
:10367000CBF370022C0C002000B589B043798DF893
:10368000043083798DF8053001238DF806300378F6
:103690008DF80730B0F8013040F271214B430393AD
:1036A000B0F803204A430D49059291F824108DF893
:1036B0001C1000218DF81D100949A2F6C4128A427F
:1036C00009D8A3F6C4138B4205D801A8FFF730FF31
:1036D00009B05DF804FB3020FAE700BF2C0C002095
:1036E0003C369C002DE9FF410678012E074604D1A7
:1036F0004378012B0DD9122469E0002EFBD1012162
:103700003046FEF78DFF054600287CD140F69A51E1
:1037100007E031460020FEF783FF054620B940F65A
:103720003F513920FEF746FCBB88002B65D10AF0DB
:10373000B9FD002863D195F8F430002B61D12846FB
:10374000FFF77AFD04460028D5D131463046DFF830
:103750000481FEF765FF98F8143006461BB110B9D6
:1037600040F65B51DDE7D8F830200392002B41D0C2
:1037700096F8F430002B3DD07B88DBBB98F82030E6
:103780000093D8F82C2098F8221003AB30460AF0AA
:1037900047FE78B330460AF0F5FF06F140030746CE
:1037A00005F14002643653F8041B42F8041BB3428F
:1037B000F9D12846FFF740FD024610B140F682518C
:1037C000AFE70C2F07D10146284603F089F92046C0
:1037D00004B0BDE8F08117B140F68B51A1E798F82D
:1037E0002130296D43F0040385F85430284603F056
:1037F00051F9ECE7BA887988E6E71124E7E73A243B
:10380000E5E70C24E3E70AF04BFF04460028DED18D
:1038100095F8543095F8892022B195F88A20134301
:1038200085F88900053B012BD1D82B6D13B940F6E3
:10383000AA5176E701210846FEF7F2FE2946064620
:103840004FF4907208F080F90423316D86F85430FB
:103850003046CCE72C0C00202DE9F04F457AA90723
:1038600089B0044655D545F001054572072D52D85B
:1038700000F054FB35EA000040F0A88194F848704D
:10388000002F40F0A381012D45D1A369BA4AA3F2CC
:103890005371914200F29881E26893423BD8A28F23
:1038A000B4F842309A4236D8E38E228E618DA08CD5
:1038B00008F057FE002800F0878123789A1E022A1C
:1038C00040F28481012B26D813B9A378012B22D88A
:1038D0006378032B1FD894F84930013B062B1AD884
:1038E000DFF8988201210020FEF79AFE98F8143044
:1038F0000646ABB901210846FEF792FE002818BF24
:10390000064606F190000AF012FF814610B30C271C
:1039100002E06A07AAD11227384609B0BDE8F08F45
:1039200090300AF004FF0028E4D0D6E924126FF0AA
:1039300000439A4208BFB1F1FF3FDBD1637A0093A5
:10394000E268617804F1180330460AF069FD8146A7
:103950000028CFD030460AF0ABFC08B13A27DBE7AD
:1039600030460AF09FFC01460028F7D10DF1120005
:10397000FEF7E2FD0546002800F02481BDF8123074
:1039800002937F4B0DF1140A18681B7905908AF891
:10399000043098F8353013B1504600F0C1FE02995A
:1039A000284609F0ECFCD8F81830C5F8DC3094F85B
:1039B0004A3004EB430340F2E24B988C598D0023CC
:1039C0005A4685F81E310BFB01F10BFB00F001F0AC
:1039D0005DFDA5F8C4B105F1A80BC5F8C400C5F894
:1039E000C00158460BF019F8039000F091FA039BC0
:1039F000A5F8E630634B98F812C01B6885F8E4C060
:103A000010F0200F0EBF1B22B8F80620B8F80810DF
:103A1000A5F8062108BF1146A5F808111BB195F9B4
:103A20001C11029898470123B8F8062098F8051051
:103A3000A5F8DA30B8F80830019198F80410009130
:103A4000033303329BB292B205F1C00105F1BC0011
:103A5000FEF758FED5F8BC3023B940F6F471392092
:103A6000FEF7A8FAD5F8C03013B940F6F571F6E7BD
:103A700008F020FDC5F8C80001F0A0F820F07F4054
:103A8000C5F8D00094F84A30D8F81C1004EB430372
:103A900028461A8EDB8EA5F8CE30A5F8CC200AF089
:103AA000B9FF514605F1160009F0D7FC98F83530FA
:103AB00013B9FF2385F80D32D8F8383023B101222D
:103AC00005F59171584698472F49584609F09AF9DB
:103AD00001F074F80C23B0FBF3F202FB1300C0B248
:103AE000431DDBB2082B9CBF0D30C3B285F82230DA
:103AF000284609F071FC28460AF0A4FFB9F1000F2E
:103B000003D1617830460AF046FC04F1030BA27839
:103B100021785B4630460AF0EBFB002858D112278B
:103B2000B5F8AA000021FEF791FD00283FF4F4AE9D
:103B300041F2882193E7DDF8148045456CD0029B63
:103B400098F8AC2003F0FD00003818BF012008F100
:103B5000AD03594609F013FB00285DD098F8B32057
:103B600095F8B30008F1B40305F1B40109F007FBBF
:103B7000002851D00B27D3E73CF670022C0C002014
:103B80008A050300741500203A0C0020E3680693B0
:103B9000637A8DF81490DB0744BFA36907935146FD
:103BA00048BF0123304648BF8DF814300AF0C5FDE8
:103BB00094F8491030460AF098FB2946304602F046
:103BC00069FFA9E60D27A7E63027A5E61127A3E69A
:103BD000B9F1000F02D1304602F084FBA2782178BF
:103BE0005B4630460AF0E4FBB9F1000F02D1042332
:103BF00086F854303565A17801F0FD0100395A4648
:103C000018BF012130460AF0EEFB23784BB9A278A9
:103C100005930292CAF804305046FEF73BFD002897
:103C200089D0B9F1000FB1D0042130460AF08AFBE7
:103C300000287FF471AE0C2772E700BF10B54379FE
:103C4000032B94B057D823F002038DF80630D0F838
:103C50000630CDF807304389ADF80B3001238DF8DD
:103C60000D30038802798DF8042040F27121027B27
:103C70008DF805204B43049342884A430792847B86
:103C8000417B41EA0421ADF82810047CC17B41EA64
:103C90000421ADF82E10847C417C41EA0421ADF86A
:103CA0003410047DC17C41EA0421ADF83A10417D15
:103CB000847D41EA0421ADF84010C17D007E41EAD7
:103CC0000021ADF8461000218DF84C100C488DF8FD
:103CD0004E100C4990F824008DF84D00A2F6C41245
:103CE0008A420AD8A3F6C4138B4206D801A8FFF76C
:103CF000B3FD14B010BD1220FBE73020F9E700BF80
:103D00002C0C00203C369C0038B501210020FEF729
:103D100087FC054620B941F2BB213920FEF74AF95C
:103D200090300AF004FD1D4B1B7D4BB3E0B195F8BC
:103D30005430053B012B17D828460AF023FD0446D2
:103D400010B141F2C621E8E7284602F05DFA95F885
:103D5000543023F0040385F8543022462146284687
:103D600002F0BEFE204638BD01210846FEF758FC91
:103D7000054610B941F2D221CFE790300AF0D7FCC6
:103D800008B90C24EEE728460AF0FCFC044600289B
:103D9000E8D1284602F038FAE4E700BF2C0C0020F6
:103DA0000278034672B1427862B142881A2A09D970
:103DB00082881A2A06D9044A006850609B881381B9
:103DC00000207047122070472C0C0020024B026824
:103DD0009A610020704700BF2C0C0020024B026843
:103DE000DA610020704700BF2C0C00200378A3F19B
:103DF0000A02112A9DBF024A0020937412207047C4
:103E00002C0C00200378FF2B15D14378FF2B12D107
:103E10008378FF2B0FD1C378FF2B0CD1037923F0CC
:103E2000E0021F2A07D11F2B05D0044A5B0982F844
:103E30002430002070471220704700BF2C0C002057
:103E400008B5052000F058F80AF0FFFE014B024AC1
:103E50009A6308BD2C0C00206932000010B50A4C92
:103E6000072000F049F8201D084908F06DFF04F113
:103E70000800074908F068FF04F10C000549BDE897
:103E8000104008F061BF00BF680C00204C0000200B
:103E9000540000205C00002038B5074C0D4600F0AF
:103EA00023FD6068256008F047FFFFF787FA00F000
:103EB0009DFE0123237438BD680C0020014B187C43
:103EC000704700BF680C002010B5064CA06808F0D1
:103ED00033FFE06808F030FFFFF73CFA002323745B
:103EE00010BD00BF680C002000487047790C00200E
:103EF000004870477B0D0020C208044900F007000D
:103F000001238340885C03438B54704710000020DA
:103F1000014BD3E90001704710000020034B1868E3
:103F2000C0F30020400040F0010070471000002066
:103F300008B505F041FB084A002332F823108142FE
:103F400005D302EB83029378044A137008BD013352
:103F50000C2BF2D10023F7E784CC02007D0E002069
:103F6000024B1878072828BF072070477D0E0020D5
:103F700008B50068B0F8AA30A0F8653190F814319F
:103F800080F86411012B06D0022B04D04FF43F714E
:103F90000620FEF70FF880F8673190F81531012BF5
:103FA00001D0022BF2D180F86831BDE80840024907
:103FB00000F25B1009F0BDBBEFCD0000024B002208
:103FC00083F822209A8470477E0E0020044B93F8D9
:103FD0002220012A1ABF036001200020704700BF81
:103FE0007E0E0020054B93F82210012902461DBFCA
:103FF000012083F822009A84002070477E0E002062
:10400000054B024693F8220020B1136009B19B8C46
:104010000B800120704700BF7E0E0020044B93F8F8
:10402000220000229A8410B183F8222001207047D8
:104030007E0E0020034B93F82200B0FA80F0400976
:10404000704700BF7E0E002050B90A4A1346012077
:1040500003F8010B0868C2F801008A889A8070474B
:10406000012805D1034B0A689A608A88D8719A8121
:10407000704700BFA40E002050B90B4B187888B1D0
:10408000D3F80120B3F805300A608B800120704717
:10409000012806D1044BD87920B19A680A609B891F
:1040A000F3E70020704700BFA40E002010B9044BB6
:1040B00018787047012806BF014BD8790020704757
:1040C000A40E0020F7B500238A888DF80600ADF80D
:1040D000042008680B4A8DF80730019D14780146CA
:1040E00002F5A872D8B2844201D8082008E052F83C
:1040F000087F5668AE4208BF8F4203F10103F1D139
:1041000003B0F0BDB80E002030B5094B01465C7815
:10411000002203F20113D0B2844201D8082005E046
:1041200013F8015F8D4202F10102F4D130BD00BFEE
:10413000B80E0020F8B52D4C6378013BDBB2221895
:10414000834292F80251637030D01A010101961C2B
:104150008F1C2644274406F1100C56F804EB47F850
:1041600004EB6645F9D1823282312244214402F1C6
:10417000100652F8047B41F8047BB242F9D1E118F1
:10418000221891F8026182F8026106267343704397
:1041900003F5857300F58570E618E358235027185A
:1041A000B388BB8091F83A3182F83A312846FFF75C
:1041B000ABFF082818D12378013BDBB29D42237066
:1041C00012D02B3304EBC30393E8030005F12B0259
:1041D00004EBC20282E803002078FFF795FF08286D
:1041E0001CBF241884F80251F8BD00BFB80E00208F
:1041F000F0B5254D95F8984189B0224605F2991100
:10420000684607F0A1FC2146684608F0D6FF044640
:10421000B8B300EB4001C9B202A8FEF703FB631E6E
:1042200095F8A161DBB2012495F8981105E0721CA4
:10423000B2FBF1F001FB1022D6B206F120020DEB29
:10424000020010F8202C002AF1D103EB43012031A9
:10425000694406EB46022A4411F8187C82F8A271E0
:1042600011F8177C11F8161C82F8A37182F8A411BA
:1042700000F8204C013BAA19DBB2FF2B82F89941D0
:10428000D2D109B0F0BD00BFB80E002070B506460F
:1042900088B00C46002A4ED0294A92F8A131D01895
:1042A00090F8991119B9FF212820FDF783FE03EB3F
:1042B00043011144013391F8A251E57091F8A351E3
:1042C00091F8A41161710021257180F8991192F87B
:1042D0009811B3FBF1F001FB103382F8A13192F891
:1042E000C23123B9174902F5DD7009F01FFA65796B
:1042F00005F03F0545F0400565710D220021684637
:1043000007F0A0FBE3788DF80F3023798DF80E309D
:1043100004AA0423694630468DF80D5007F01AFAB6
:104320009DF81F3023709DF81E3063709DF81D307E
:10433000A37008B070BD03216018FEF773FAD6E7CA
:10434000B80E0020F1410000044B5A78824286BF2B
:104350001B1893F842010020704700BFB80E0020E0
:10436000064B00224FF461711A8083F8C32183F851
:10437000C421A3F8C61183F8C2217047B80E0020EB
:1043800010B51446FFF79EFE082813D0FFF7BCFEB9
:10439000094B5A7882420DD904B12070184490F824
:1043A0003A3190F84A01012B08BF40F0010000F0BB
:1043B000010010BD0120FAE7B80E00202DE9F047FA
:1043C0008246894617469846FFF77CFE0828054630
:1043D000064603D0FFF798FE082860D1324C637878
:1043E000072B5ED8082D15D12678731C072E237055
:1043F00003D96C212820FDF7DDFD06F12B02D9F849
:10440000000044F8320004EBC203B9F804209A809B
:1044100083F806A065786B1C290163704B1C07F1BB
:104420001002234412F8010D03F8010FBA42F9D12A
:10443000813108F11003214413F8012D01F8012FF7
:104440009845F9D11021404608F0FDFE2544102181
:1044500085F84201384608F0F6FE85F80261667874
:1044600085F84A010023114885F83A31314608F0B1
:10447000A4FE0128054607D80D48314608F09DFEE8
:10448000002818BF0135EDB284F898510025284660
:1044900084F8A151FFF7ACFE2846BDE8F087122052
:1044A000FBE70720F9E700BFB80E0020FA0F002055
:1044B0000210002010B5064B5878013840B2002891
:1044C00000DA10BDC4B22046FFF734FE601EF5E7E7
:1044D000B80E0020014B83F8C3017047B80E0020CE
:1044E000014B93F8C3017047B80E0020431E9BB2E6
:1044F0004AF2B71293429DBF024BA3F8C6010120B6
:1045000000207047B80E0020014BB3F8C601704779
:10451000B80E002030B50A4B5C7884420ED918449E
:1045200090F802012B3003EBC004A5790D7053F80D
:1045300030001060A3889380012030BD0020FCE78C
:10454000B80E00200246074810B590F8C34124B1C8
:10455000417821B1023003F04FFB204610BD0C46DC
:10456000FBE700BFB80E0020F8B5184C064648B36C
:10457000617804F5A17008F020FE94F89851074680
:10458000294604F2991008F018FE2D1AEDB2AF4238
:104590001AD800256278EBB29A4201D80120F8BD02
:1045A000E21892F842215AB9062101FB034104EBBB
:1045B0000313324601F5857103F18200FFF766FEB1
:1045C0000135E7E70546E5E70020E8E7B80E0020FB
:1045D000F0B51B4E7378834289B007460D462CD93F
:1045E000331893F8424144BB0D222146684607F038
:1045F00029FAEB788DF80F302B798DF80E3006EB19
:1046000007106B798DF80D3004AA042369468230B7
:1046100007F0A0F82A789DF81F309A420AD16A78EC
:104620009DF81E309A4205D1AC789DF81D30E31AF2
:104630005C425C41204609B0F0BD0020FBE700BFB2
:10464000B80E0020074B5A78824209D91A1892F8FE
:1046500042212AB9062202FB003000F5857070471E
:1046600000207047B80E0020F8B50E460746062118
:104670003046154608F0E7FD044670B10C4B0022A9
:10468000587803F23913D1B2884202D80124204667
:10469000F8BD03F8015F0132F5E73146384608F00E
:1046A000A8FD0828F3D0024B034483F83A51EDE704
:1046B000B80E0020034B80F874101B680BB14088C3
:1046C0001847704778150020036830B50024D3F8E8
:1046D000C400A3F84040B3F8444042F2107544438C
:1046E000B4FBF1F4A3F844404C1E05FB0242B2FBBC
:1046F000F1F2A3F84220094AB2FBF1F20132A3F829
:1047000048209A8F05FB02445A6BB4FBF1F45043E6
:104710009C63B0FBF1F0586330BD00BF005A6202E9
:10472000054B1B7833B9054B1A681B79026003717E
:1047300001207047002070478010002018000020E2
:10474000054BFF221A70054A016811600179117149
:1047500000221A70704700BF80100020180000204F
:1047600007B5064A1068009012798DF80420684653
:10477000FFF7E6FF03B05DF804FB00BF8A05030006
:104780000346084671B13F2B0BD8074AD35C03F0B0
:104790007F02914205D08CBF0120002000EAD31097
:1047A00070470120704700BFCCCC0200FF230B7084
:1047B00002234B7083238B70014B1B78CB707047A7
:1047C000841000202DE9F84FD0F80480D8F8186044
:1047D00030460C4607F036FD054620B94FF4AA7165
:1047E0001020FDF7E7FB0146304607F039FDB5F82C
:1047F00000B01FFA8BF7824617B94FF4AC71EFE7A0
:10480000224B1B6800F10309D3B998F8023098F8DD
:10481000032023706378A4F802B002F00F0223F0A3
:104820000F03134323F0C00363709AF8003003F0C2
:104830000303012B0FD0022B0DD04FF4BB71CFE738
:10484000B8F802003A464946984705460028DCD1A8
:104850002846BDE8F88F627863F30512627030462F
:1048600007F004FD054610B94FF4C071B8E7FB2FFF
:1048700002D940F28F11B3E73A464946201D07F0AE
:1048800063F9304607F04DFCE2E700BF7C150020DD
:1048900038B5134C10220021201D07F0D3F8012554
:1048A0002574102204F10803002104F11400C4E966
:1048B000013307F0C7F884F8205004F11803C4E965
:1048C0000533084A00236362A36284F82C30C4F8DD
:1048D0002D30C4F8313084F835301360A36338BD0F
:1048E000841000207C15002010B5084C2378FF2B85
:1048F00004D040F299111020FDF75CFB06F070FF28
:104900002070BDE81040FFF7C3BF00BF1D000020AE
:1049100010B5034C207806F07DFFFF23237010BDF7
:104920001D000020014B187806F084BF1D000020F8
:10493000014B024A1A60704780150020C5470000ED
:104940002DE9F341DFF86881054608F11407D8F82E
:104950000830D8F81840227A012A22D1D8F8382015
:1049600052B1137A1BB9BF211020FDF723FBD8F8F1
:104970003840C4B9002083E01A7A012AFAD04D4A9F
:104980001C46EFF3108172B650680068506001B9A0
:1049900062B6A34208BFC8F83840237A1BB9EE219B
:1049A000E2E73A46EDE7267AF6B205232372731E54
:1049B0000B2B6ED8DFE803F06A062235676D3E6D7B
:1049C0006D6D6D5B636813B94FF40371CCE72046DE
:1049D000294698470420EFF3108272B6237A052BFC
:1049E000D9B24FF0000359D12372D8F83810A14240
:1049F00001D1C8F83830B2BB62B634E0636813B98D
:104A000040F21521B0E72946204698470346C3F3F4
:104A10000723012BADF80400C0B22FD0022BDAD14E
:104A20001AE0636813B940F21D219DE720469847BC
:104A30000020D0E763680BB9FE2195E786222A7033
:104A400001225988AA706A7100225869A5F80310DA
:104A5000AA7107F066FB0420D8F83830A34202D1CF
:104A60000023C8F8383000283FF471AF08E0124B3B
:104A700029461B6820469847034668B9267298B1B4
:104A800002B0BDE8F0814FF415716DE740F2572197
:104A90006AE740F25A2167E70220DDE711B940F2E8
:104AA0007B2161E71846A6E7002B7FF450AF61E752
:104AB00084100020881000208015002010B51346B7
:104AC000027A22B140F202311020FDF773FA0A4651
:104AD000BDE810400146014808F005BE88100020DE
:104AE000044890F82C301BB90349243008F018BE54
:104AF000704700BF84100020D7D600000346064848
:104B000090F83C203AB190F8352022B900F82D3BBE
:104B1000024908F005BE704784100020AD47000030
:104B200010B50A46037A23B140F20A311020FDF78E
:104B300041FA0146BDE810400148072308F0D3BD03
:104B4000981000201346027A0AB1037270470A4691
:104B50000146014808F0C7BD881000201B234FF014
:104B60001B128384038482618382C260038539B906
:104B70004FF4A473034AC3844384C261C3820261B5
:104B8000704700BF48014801014908F0D2BD00BF8D
:104B900039D700000B8BA2F80B304B8BA2F80D30ED
:104BA0008B8BA2F80F30CB8BA2F809000249A2F838
:104BB0001130104608F0B7BD89D70000094AD2E984
:104BC0000003434083EAB01181EA43214FEAF343F3
:104BD0005360054B116058434FEAF06000EB8000D2
:104BE000704700BF20000020BB79379E10B50A4CEB
:104BF00009480821FDF716FED4E900321343F7D027
:104C0000064CFFF7DBFF2060FFF7D8FF23686060EA
:104C10001843F6D010BD00BF20000020C4100020B3
:104C200038B5A0F10A03DBB2432B144698BF0C4AF7
:104C30000D46204694BFD15CFE2108F0FBFE68B90A
:104C400065B12978272907D03F2908BF3E21204692
:104C5000BDE8384008F0EEBE2621F8E738BD00BFB9
:104C60000CCD0200174B184A9A60184ADA62184AAB
:104C70001A61184A5A61184A9A61184A1A63184AFE
:104C80005A62184ADA64184A9A64184A9A63184BA6
:104C9000184A9A60184A1A62184A5A60184A1A60E2
:104CA000184A9A62184ADA62184ADA60184A9A610F
:104CB000184A1A63184A9A64184ADA64184A5A62F7
:104CC000704700BF841500206BDB0000A5DD0000ED
:104CD00077DD000041DD0000C94F00008951000070
:104CE0008150000097DE0000AFDE00003D50000064
:104CF0008416002081DB000067DE000091DB0000ED
:104D00008DDC0000F5DD0000BBDD000013DE0000DF
:104D1000DBDD000023DF0000CBDE0000C7DE00008B
:104D20007DDE0000054B064A1A65064A5A65064BA9
:104D3000064A1A65064A5A65704700BF8415002066
:104D400069E00000FDDF000084160020E7DF0000BE
:104D5000FBE00000054B064A9A65064ADA65064BF9
:104D6000064A9A65064A1A66704700BF84150020F5
:104D7000DBCF0000BFD0000084160020D3CE00009F
:104D800011D1000073B5054601A80E46FFF71EF9C4
:104D900020B94FF4AA615120FDF70CF901982222A5
:104DA000002106F04FFE019C204600F8036F252EDF
:104DB00000F2C280DFE806F01318383EC0C0C356C8
:104DC0005A5DC3C362C0C0C0C06EC3C3808097C0F9
:104DD0009EC0C0C0C0C0C0C0C0C0C0A2AEB829463E
:104DE00008F05FFFC0B98CE02E68D6F80832636027
:104DF00096F80C322372286890F89F3033B908F087
:104E000079FE2B68DB881844A6F80E02B6F80E323D
:104E100063721B0AA3720820FFF7E4F8002840F031
:104E2000908040F25751B6E72B6893F821312371F7
:104E30000220F1E72B68D3F84C226260D3F85022AD
:104E4000A260B3F85422A281D3F82C22C4F80E2019
:104E5000D3F83022C4F81220D3F89030C4F81630BA
:104E60001720D9E72B6893F8A030E0E700F040F96D
:104E7000B8E70146284600F04DF9B3E71123237146
:104E8000592363710023A3713923E3711023237223
:104E90000620C1E72B6893F8A0203AB193F89D2033
:104EA000227193F89C3063710320B5E793F89B203F
:104EB000227193F89A30F6E72B68B3F8002122713B
:104EC000120A6271B3F8A220A271120AE271B3F859
:104ED000FC202272120A6272B3F8A030A3721B0A7D
:104EE000E372092098E72B6893F82E21227193F83A
:104EF0002F31D8E7294608F045F873E7124B1B68B5
:104F000013B940F2495146E701462A462320984703
:104F1000042081E70C4B1B68002BF2D001462A4687
:104F200024209847052077E7074B1B68002BE8D023
:104F300001462A462520F4E740F244512BE70120A0
:104F40006AE702B070BD00BF841700203F289ABFF7
:104F5000024B53F820000020704700BF841500204A
:104F60003F289ABF024B53F820000020704700BF33
:104F700084160020F7B50568D5F8BC6004464FF6E6
:104F8000FF770DF102010DF101023046ADF802701C
:104F900007F07DF801A9304607F09EF848B1019866
:104FA00007F062F92168A83100220272FFF7B8FD0C
:104FB000E7E7044905F1280003B0BDE8F04008F038
:104FC000B2BB00BFFFDA000010B503689A7B1E2A4F
:104FD00004462CD1002283F8512083F84A2083F81C
:104FE0005622036893F85210B3F8AA0081B1114910
:104FF000C3F8A92183F85220A3F8AA01A3F8AD2190
:1050000003F5D07008F08CFB23680020987310BD66
:105010000122A3F8990183F8981183F89F11A3F84E
:105020009C1183F89B21044903F28F10EAE70220C8
:10503000EDE700BF29DD000011DD000038B5046890
:10504000E57BBDB9D1F801200B4BD1F80510134019
:105050000A4AC4F86230C3F3076343F008030A4006
:1050600084F86530C4F8662008F00CFD0423E3736F
:10507000284638BD0125FBE72FC904F76FDB008008
:1050800010B50068837B042B2ED1D1F80130D1F804
:105090000540C0F86230C3F3076343F0080380F8AB
:1050A000653000234A1CC0F8664080F84A3083739C
:1050B00080F8333190F8713103F0FF040BB1002018
:1050C00010BDB0F8AA30A0F8733180F87241D1F861
:1050D0000130C0F875315368C0F87931034900F2E6
:1050E000691008F01DFBEAE70120E9E73DDE00005A
:1050F00010B50446FEF70CFF044A054B02400B4076
:10510000C4F80120C4F80530092010BD2FC904F7E8
:105110006FDB008037B50C460568FEF7F9FE0A4ADA
:105120000A4B0A4095F862100192034000930B402D
:105130008DF800306B4603CBC4F801000920C4F899
:10514000051003B030BD00BF6FDB00802FC904F72E
:1051500038B5DB04154604D5037D13B10023436342
:1051600038BD446B0134446308F0BAFE836B9C4243
:10517000F6D30023436303492846BDE8384008F0CE
:10518000D8BA00BF8BDE000038B50468A37B012BC2
:10519000054601D0E37BB3BB94F85330980713D492
:1051A0004A7884F85D204A88A4F85E208A88A4F8AA
:1051B000602043F0020284F85320DA070ED5134929
:1051C00004F1540008F0B5FA94F85330DB070FD41B
:1051D000E37B43B153214020FCF7ECFE94F83231DD
:1051E000002BECD1F0E70123E373284608F04AFCDA
:1051F000A37B012B4FF0000301D0002038BDA37327
:1052000084F84A30F9E70120F8E700BF01DF000029
:1052100070B50568044602F0ABFC054BE8721B68EC
:1052200001461BB12046BDE87040184770BD00BF65
:105230008C170020024B1B6803B11847704700BF52
:1052400088170020F0B51F4D2B78002414709BB1F7
:10525000013B6D68DBB21E1B012E0FDC05EBC406A3
:1052600055F8347076688E4208BF874227D0B8421E
:1052700071EB060612D214700020F0BD1E197710D3
:1052800005EBC70E55F837C0DEF804708445C6F349
:1052900047068F412CBF33463446DCE705EBC30499
:1052A00055F8335064688C4208BF854206D0A84246
:1052B00071EB040428BF01331370DDE71C46147042
:1052C0000120DAE7DC10002010F0070208B503D057
:1052D00063214820FCF76EFE18B1034B1972586029
:1052E0001A70C80008BD00BFDC100020014B00226E
:1052F0001A707047DC100020014B00221A607047C2
:10530000EC10002008B5044B186810B9FFF7F4FF43
:1053100008BD0C20FCE700BFEC100020024B187900
:10532000003818BF01207047EC10002013B5CDE9FC
:105330000012054BFF225A7100F11003DDE9000154
:1053400083E8030002B010BDEC100020C3693BB934
:1053500083692BB9034B1B681B1A5842584170478D
:1053600001207047EC10002030B50D4AFF23137167
:10537000D0E9065373B1D0E902140C44D9689D6199
:105380002144D960816939B1CB610023C0E906337A
:10539000137130BD1560F5E7002BF6D0D960F4E746
:1053A000EC10002010B5124AFF231371C16189B9B6
:1053B0001368836103B1D8611060C1690023C360C1
:1053C00099B1CB687BB18468A3420AD230213720DF
:1053D000FCF7F0FD8B6988618361002BEDD0D8610B
:1053E000EBE71B1BC3600023CB600023137110BDD0
:1053F000EC100020014B1868704700BFEC10002033
:10540000034B1B68002003B9704718469B69FAE7F5
:10541000EC1000200B4B00221B6830B504464FF007
:10542000FF35104623B911B9002808BF104630BD1A
:10543000DA68A24203D3AA423CBF154618461A4670
:105440009B69EFE7EC10002070B50F4CFF23237130
:10545000036A1BB181689D68A94203D2E521372008
:10546000FCF7A8FDC2698669DA619E6152B1936159
:105470009A691AB1D361C26811444A1BDA600023E9
:10548000237170BD2360F3E7EC100020F8B52A4EBD
:1054900004464FF0000C084686F805C00021356828
:1054A0000B4685B97579002DF6D15BB1984225D3AD
:1054B000B0FBF3F1013C03FB01F51C44B4FBF3F436
:1054C0008C420ED9F8BD2F690BB19F4207D23B46E3
:1054D00027B94FF4A3713720FCF76CFDA98AAD6999
:1054E000DFE7B5FBF3F603FB165626B9B5FBF2F67C
:1054F00002FB1656DEB10139ED1AE1E7451E1D44E7
:10550000B3FBF4F4B5FBF0F5AC42DBD3B3FBF5F63B
:1055100005FB16374FB9B6FBF2F702FB176727B941
:10552000B6FBF1F701FB17671FB10135ECE7284621
:10553000C8E73046C6E700BFEC100020FF230B7021
:10554000074A0D234B7082238B701368C1F8033018
:105550005368C1F807309368C1F80B30704700BF3B
:10556000F210002002481622002106F06BBA00BF9C
:10557000F2100020F8B5154D6B7D044623B3D0E939
:105580006C7608F028FD94F81421114B114933F87A
:10559000123066304FF47A7203F23F63B3FBF2F3DA
:1055A000DB1946F100061B18B4F8AA206B6046F11F
:1055B0000006E3882A80AE606B8005F10C000222B1
:1055C000BDE8F840FFF7BEBAF8BD00BFF2100020FA
:1055D000CCCD02003D550000024B1B68002283F831
:1055E000702070470811002008B502F0C1FA014B85
:1055F000187008BD28000020024B18686C3001F0BC
:1056000087B800BF0811002038B50F4CFFF7F4FF32
:10561000656801F053F863682860186820B940F2A3
:10562000F5413220FCF7C6FC08F034FF10B940F217
:10563000F741F6E702F094FF002002F0FBFF6368F9
:1056400004221A7138BD00BF0811002070B52B4C20
:1056500063680646186808F01DFF054620B941F248
:10566000C4313220FCF7A6FC236893F8543013B9F8
:1056700041F2CA31F5E776B107F0ABFF30B16368AC
:105680001A79022A0ED841F24A31EAE7284607F091
:10569000B8FF0028F3D163681A79022A17D841F2BB
:1056A000AA31DEE71A79082A02D941F24B31D8E74C
:1056B0001B79A26803F180431269033B284652F824
:1056C000233098470C2812D941F2DD31C9E71A7905
:1056D000082A02D941F2AB31C3E71B79A26803F172
:1056E00080435269033B52F823309847EAE7A368A6
:1056F000DB68BDE8704053F82030184708110020DF
:1057000008B5074B93F900207F2A04D140F29B3162
:105710003220FCF74FFC02707F221A7008BD00BFD8
:105720002800002010B504788EB004F00F04224643
:1057300004A908F0D0FEFFF757FF042C33D11B4C0F
:10574000059A2368107893F8741088422BD150780A
:1057500093F87510884226D1907893F87610884295
:1057600021D1D07893F8771088421CD1107993F822
:105770007810884217D1517993F87920914212D14B
:105780009DF8212093F87A309A420CD10DF10F0048
:10579000FFF7B6FF9DF90F300093237C227B6068F2
:1057A00004A908F089FE03200EB010BD08110020E6
:1057B00010B50D4A53681979022904D841F2BC4149
:1057C0003220FCF7F7FB1979082902D941F2BD41D3
:1057D000F6E71B79926803F180439268033BBDE8CA
:1057E000104052F8233018470811002010B5054C1E
:1057F000637B2BB102F044FF02F030FA00236373A5
:1058000010BD00BF0811002010B5064CFFF7EEFFD9
:10581000636801221A71FFF7EFFE2068BDE81040AF
:1058200009F0C4B80811002010B500B919B9BDE8D5
:105830001040FFF7E9BF0D4A53681979082904D8C9
:1058400041F28C413220FCF7B5FB19790C2902D9C1
:1058500041F28D41F6E71B79926803F1804352686B
:10586000093BBDE8104052F82330184708110020CA
:1058700038B52F4CFFF7C0FE656800F01FFF636866
:105880002860186820B940F252413220FCF792FBA0
:1058900008F000FE054610B940F25441F5E72368D0
:1058A00093F889306BB123681A6D93F88A10C3F8A6
:1058B000F02093F854200A4383F85420002283F800
:1058C000892063681A795AB11B79012B08D02068A6
:1058D000002108F05EFF18B9BDE83840FFF794BF1B
:1058E0002368144A93F88830D05C02F0F7FC012159
:1058F000252002F069FC284602F032FE012108460C
:1059000002F0FAFCE81CFEF71DFE607320B102F005
:105910008BF9402002F0A8FE626800230821E3739F
:10592000A3732374D380032321735171137138BD82
:105930000811002050CD020070B5384C63681B7907
:10594000012B054604D940F6FC013220FCF732FB5E
:1059500002F06AFC02F094FE02F080F9304802F096
:10596000F7FD304802F0EEFD2F4802F0ADFC6B7AF7
:1059700023B123681B6E0BB101221A602B7A032B13
:1059800002D140F62E11E0E7206893B9032190F888
:10599000882090F849500E460132B2FBF6F303EB33
:1059A0004303D31ADAB245FA03F3DB072BD580F8A9
:1059B000882090F9580002F081FCFFF759FF256814
:1059C00095F84830F3B1D5E920126FF000439A42C0
:1059D00008BFB1F1FF3F15D003F06EFED5E92023DB
:1059E000904299410ED3236893F8483083B92568D3
:1059F000FEF78AFD044603F05FFE0C4BE4FB030157
:105A0000C5E9200170BD013911F0FF01C4D1CEE715
:105A10000120FEF7A9FD0028F4D0E8E708110020D6
:105A20005863000055555500D6BE898E40420F0080
:105A30002DE9F843604F06467869D7F800800023C7
:105A400003704370894602F0A7FD054630B9032074
:105A5000FFF754F800252846BDE8F8837C69032E3B
:105A600023782FD123F00F0343F0030323700C237B
:105A700063707869D8F87430C0F80930B8F87830B5
:105A8000A0F80D3098F87A1007F099FD3B6893F86C
:105A9000482093F8418003F14209002A68D14C461E
:105AA00078692368C0F80330A388A0F8073041461E
:105AB00007F07CFD414BD3F80431002B6CD002F091
:105AC0008FFCC4E723F02F0343EA491339682222ED
:105AD00043F00503627023700B6DD3F8C830C4F82F
:105AE0000F300B6DD3F8D020E274100A120C207521
:105AF0006275B3F8D82040F2E240B2FBF0F2A27532
:105B0000D3F8D420B2FBF0F2E275C2F3072222767A
:105B1000D3F8C420B2FBF0F26276C2F30722A27679
:105B2000B3F8CC20E276120A2277B3F8CE2062775F
:105B3000120AA277D3F81720C4F81F20DB7E84F85E
:105B400023300B6D94F8242093F8223022F01F02AA
:105B500003F01F03134384F82430FEF701FA94F88E
:105B6000243003F01F0343EA401384F8243080E715
:105B700093F8542052070CD593F84B204AB193F870
:105B80004C00FEF75FFD0446002888D04FF0010866
:105B900086E77B685879F4E7052E7FF45CAF3B68B5
:105BA00021681A6DC2F8B410A188A2F8B8101B6D54
:105BB00083F8B3804FE700BF0811002000100040B9
:105BC00010B500210320FFF733FF18B9BDE81040DE
:105BD000FFF71ABE074C0321206808F0DAFD002801
:105BE000F4D00121084602F071FD636809221A71A0
:105BF00010BD00BF0811002070B5164C636818680E
:105C000008F048FC064620B940F261513220FCF70A
:105C1000D1F9636820680A221A71002100F070FF30
:105C200023681B6D9D7D3378C3F340131D402946C7
:105C30000520FFF7FDFE18B9BDE87040FFF7E4BD91
:105C40002068042108F0A5FD0028F5D023681B6D0D
:105C50009D7570BD081100202DE9F04F734C95B073
:105C60000546FFF7C1FC236893F8543013F0060F84
:105C700004D001229621002009F07BF82E7806F04E
:105C80000F06284632460AA908F025FC0B9D55B39D
:105C90009DF83930012B50D16B7903F0C003A3F18B
:105CA00040056B426B41627B4AB143B1656807F0C6
:105CB000AAFA636868715B7923730123A37363682D
:105CC000587908283BD10B999DF8390008F050F914
:105CD00062680B99054605329DF83900FEF750FBC6
:105CE000636800283DD0226892F8543013F0030115
:105CF00006D0062E9DBF92F84A102943C9B2002152
:105D0000606801F0010113F00403817106D0062ED2
:105D10009DBF92F84B301D43EBB2002303F001030B
:105D2000C3710B9BF3B19DF8391082F87A10196892
:105D300051679B88A2F8783014E00023B3E708AAE3
:105D40000DF11F01FEF7E6FB20B940F6A531322028
:105D5000FCF730F99DF81F0008A908F009F905467D
:105D6000C1E7D880062E00F2C680DFE816F0610099
:105D7000E4000700C400C400C400240002F030FBAB
:105D8000266896F85430980713D06568AB7983B1CC
:105D900008A8FFF7B5FC9DF920300293237B0193FF
:105DA000FF230093022206F142030AA9284608F0C5
:105DB00073FB03251DE06568AB79002B00F09B8029
:105DC000266896F85420910719D508A8FFF798FC83
:105DD0009DF920300293237B0193FF2300932846F3
:105DE00006F1420306220AA908F056FB0023237499
:105DF0000925FFF7FBFC284615B0BDE8F08FD30757
:105E000079D5570701D502F0EBFA08A8FFF778FC1F
:105E10009DF9202023680292227B0192FF220092AA
:105E20004233062260680AA9C1E700BF08110020BA
:105E3000236893F85420560738D56168CA79002A38
:105E400034D00B9A93F85A001578854256D155787C
:105E500093F85B00854251D1957893F85C008542B8
:105E60004CD1D57893F85D00854247D1157993F8E8
:105E70005E00854242D1507993F85F2090423DD137
:105E80009DF8392093F85900151A6A426A4193F82F
:105E9000560001284DD0002A4BD193F84C30082BE6
:105EA00002D04A799A4244D002F09AFA6568AB79F6
:105EB000002B3CD0266896F85420900720D508A8DF
:105EC000FFF71EFC9DF920300293237B0193FF23F3
:105ED0000093284606F1420300220AA908F0DCFAE2
:105EE0000123237409256368DA79002A81D19B791B
:105EF000002B7FF47EAF02F073FA5AE70022C6E768
:105F0000D10714D5530701D502F06AFA08A8FFF7A4
:105F1000F7FB9DF9202023680292227B0192FF2249
:105F200000926068423300220AA908F0B5FA0325FE
:105F3000D9E70A25D7E7616822688B799DF83A008E
:105F4000059392F8483091F807B0012883F0010AD0
:105F500040F0A8800C98477907F0C007A7F1400CE3
:105F6000DCF1000747EB0C0792F85400460740F1BC
:105F70009B8092F84B00002800F0968092F84C50DD
:105F8000082D00F093802846FEF7DEF94AEA00006B
:105F90005FFA80FA002F00F08B800C992846FEF7FC
:105FA00017FB0646216891F8542091F84180550767
:105FB0004ED50B9A91F85A00157885427AD15578CA
:105FC00091F85B00854275D1957891F85C00854227
:105FD00070D1D57891F85D0085426BD1157991F833
:105FE0005E00854266D1507991F85F20904261D180
:105FF0009DF8395091F85920A81A454245416268E8
:106000005279082A58D091F84C90A9EB0202D2F1AB
:10601000000949EB0209002E51D1BAF1000F50D00E
:106020000C9B9DF83A204231404607F0A8F8BBF19E
:10603000000F0BD0236893F85630012B56D02BB9A4
:10604000002D53D110B1B9F1000F51D102F0C8F9B0
:10605000236893F854309B073FF4ABAE02F0C0F9CD
:10606000059B002B3FF4A5AE20680C9B9DF83A20C1
:1060700000F1420190F8410007F081F8256800B96D
:106080000EB308A8FFF73CFB9DF920300293237B59
:10609000019348EA46085FFA88F30093012205F16C
:1060A0004203BFE600275FE74D7969E7002679E7FD
:1060B0003E4677E70025A2E74FF00009ABE7012055
:1060C000B5E73046B3E795F85530023B012B3FF674
:1060D00070AE002F3FF46DAE08A8FFF711FB9DF9DD
:1060E00020300293237B0193FE23D6E70028ADD016
:1060F0000A257EE673B5414CFFF778FB2368002242
:106100005A721A6DB2F8AA10598140F2E240D2F8E0
:10611000C410B1FBF0F11984B2F8CC10B2F8CE2063
:106120009A844FF47F42DA844FF6FF7259841A85BD
:106130006069694607F033FA236893F8482003F151
:106140001405EAB162691278520619D59DF8052046
:1061500002F0C002402A13D10098BDF80420586113
:10616000AA80207B082803F10E0239D003F10D012B
:10617000FEF7D0F938B941F213413220FBF71AFF8C
:1061800000225A61ECE723685A7B42F002025A73FC
:106190005A6FC3F81A20B3F87820DA83186D93F990
:1061A0005810A830FEF786FA2068154907F0B8FAAB
:1061B00020681449036DB3F8AA20A0F833209B7D12
:1061C00080F835302A3007F0B4FA2068022100F058
:1061D00097FCFFF711FA02B0BDE87040FFF7FCB979
:1061E00093F87A105973596FC3F80E10B3F87810FA
:1061F00091800021C3F81A10D983CFE7081100203D
:106200005DE1000019E10000036D10B5044623B9FB
:1062100040F261313220FBF7CDFE02224272B3F828
:10622000AA304381FF2380F827304FF6FF730385A0
:10623000024907F075FA0023236510BD5DE10000F7
:10624000F8B50646FDF750FE174F01217861002092
:10625000FCF7AAF9054620B940F685013220FBF784
:10626000A9FE4FF49072002105F0ECFB01210846D5
:10627000FCF79AF9044620B14FF49072002105F022
:10628000E1FBBB6813B940F68F01E7E7304608F041
:1062900014F8284608F049FA24B12046BDE8F84031
:1062A00008F043BAF8BD00BF08110020014B024AB4
:1062B0009A60704708110020BC630000036810B5A5
:1062C00023B940F677113220FBF774FE044A1360BD
:1062D0006C3353609368BDE810401B68184700BFDB
:1062E0000811002038B5044690F8400000F0FD0089
:1062F000003818BF012084F8410004F14201FDF785
:10630000BBFE94F84030023BDBB2012B94BF01236B
:10631000002384F8483015D8FEF7F6F8054603F058
:10632000CBF9094BE5FB030194F84830C4E920019F
:1063300043B10020FEF718F920B940F621213220A0
:10634000FBF738FE38BD00BF40420F000149363030
:1063500007F0E9B93BE10000B15700004D560000DD
:106360002958000081E2000009560000F560000095
:106370006BE2000059E20000D95500000958000006
:106380002FE10000715800002FE100002FE1000014
:106390002FE100002FE100002FE10000C15B0000B1
:1063A000F95B00002FE100002FE10000595C0000C4
:1063B0002557000093E2000085E2000039590000F3
:1063C000686300007063000078630000AC63000045
:1063D000B463000008B506F029F8054AD2E84F3F3B
:1063E0000133DBB2C2E8413F0029F7D108BD00BF4D
:1063F000201100202DE9F84F1E46474B04689DF8F8
:1064000028709DF82C809DF930909DF834A093461B
:106410001A780D460021016032B95868A4F10801CC
:10642000BDE8F84FFFF7D6BF1A2204F1090005F0C6
:1064300009FB0123A372BBF1060F3CD8DFE80BF088
:106440000420263B303B2A00E37A23F0130343F079
:106450001303E37201232375FF23A375B8F1080F1B
:106460004FF07F0384F81890E37504F10E0246D0D4
:1064700004F10D014046FEF74DF808BBC3211CE0B6
:10648000E37A23F0150343F01503E2E7E37A43F0E0
:106490001003DEE7E37A23F0120343F01203D8E798
:1064A000E27A4AF01A0A22F01B020AF01B0A42EAB8
:1064B0000A02E272CEE740F246413320FBF77AFD52
:1064C000637B43F002036373E37A5B0720D5BA1E54
:1064D000012A8BBFAA6832681168E26188BFE16156
:1064E00004F11C0394BFB28892889A80E776002357
:1064F00023720A492046BDE8F84F07F014B96B7CB7
:1065000063736B681968C4F80E109B889380DBE78F
:10651000FF23E376EBE700BF201100202165000098
:106520002DE9F04305468DB00C4600200121FCF713
:1065300077F8064620B94FF4F1713320FBF73AFDA6
:10654000903008F0F4F84E4FA5F1080818B196F80D
:106550005430042B17D1304607F0A4FE98B9786860
:106560004146FFF737FF4FF40073ADF804309DF854
:106570000430002063F307009DF8053063F30F201B
:106580000DB0BDE8F08302A905F1230007F0D4FFA8
:10659000EE7A16F0100604F10D0906D09DF8186089
:1065A00005993246484605F0CFFAEB7AD90601D470
:1065B0005B21C2E713F0040FAA7A95F80DC04FF0E3
:1065C0003E0304F1060105F10E002AD095F81BE008
:1065D000BEF1FE0F25D123700B23A37013010233EC
:1065E00063700123E270237184F805C0D5F80E3082
:1065F000C4F8063083888B8084F80CE0EB69C4F81B
:106600000D302B8CA9F804302B7EE374786841465A
:10661000FFF7E0FE237923F0600323714FF4017349
:10662000A3E723700223A37006F10A0313FB02F30E
:1066300002336370E27084F805C0D5F80E30C4F8F8
:10664000063083888B80267326442B7E7373EA7A08
:1066500012F0080102D004232371D7E702F00303EC
:10666000032B01D12171D1E7520701D50123F3E7B3
:10667000022BF1D00BB90323EEE7A4215DE700BFA5
:1066800020110020233270B592B205460C461E46FA
:1066900005F094FE25B1034A5560147256721470C9
:1066A00070BD00BF2011002010B5034C606805F0DC
:1066B000A7FE237A237010BD2011002038B5134D9A
:1066C000686805F0A3FE044620B940F25711332054
:1066D000FBF770FCD5E84F3F013BDBB2C5E8413F1B
:1066E0000029F7D104F108052322284605F0AAF96C
:1066F0007F23E377FF23A377637584F82330E37C5C
:10670000012262F34613E374284638BD20110020AD
:10671000016810B5044631B1034B08395868FFF7DA
:1067200059FE0023236010BD201100202DE9F04FF9
:106730008FB09846BDF86030059304468A4691466E
:1067400002F0BAFFD4F8B430039107462046049310
:1067500007F019FF0546B8F1000F00F06E81B9F19E
:10676000000F00F0E380804617F5FA630693039B61
:1067700043F10006FEF744FE8346594604F1C80083
:106780000790FEF70FFED4F8F01011B1079808F04B
:1067900040F8CDB1D4F8D050BBF1000F17D0DBE9F1
:1067A0000031DBF80800C018069B41F10001CDE97B
:1067B00000362A4607F0E6FB8542034608D240F23F
:1067C0004D312120FBF7F6FBD4F8B050E4E75B46EF
:1067D000D4F8B010069A9D1801F2CF721344B3FB9F
:1067E000F1F301FB03F346F10006EB1A66F1000238
:1067F000C4E93232059B002B40F08D804FF0FF3210
:106800006FF00043C4E92423204607F0A9FED4F822
:106810009030D4F8941005935A1B834661EB060020
:10682000012A70F100034FF00003C0F2F680DDF89A
:1068300010C09445834100DB0492049BD4F8B4005B
:10684000834228BF03460493C4F8BC30B9F1000F5B
:1068500005D0D4E93223C4E92656C4E92A23042307
:10686000C4E92856C4F8B8B02A468AF80930204648
:106870003346069107F090FECAF804B08AF8080083
:10688000B8F1000F00F0D48001238AF80030059B96
:10689000039A0699DB1B61EB0202012B72F10000E7
:1068A0004FF00000C0F2BB80794D9D42904100DB6B
:1068B0001D46D4F8F030D4F8B060002B40F0B4801E
:1068C00007222046A6FB022807F05DFE002800F004
:1068D000A880D4E92630D21848EB000303999742E8
:1068E00071EB03000DD2D21B6FF0010063EB0103CB
:1068F00090424FF00000984102D3954228BF1546C0
:106900002E46CAF81060049B5B4534BF002001206E
:106910000FB0BDE8F08FBDF8142042F21073284686
:106920003146E2FB0301C4E924016DE790B3D4E9E9
:1069300024126FF000439A4208BFB1F1FF3F24D008
:10694000204607F00DFE039B099017F1F70243F173
:106950000003CDE90C23054640F2024308A88DF858
:106960002090ADF8283004F03BF810B940F2964181
:1069700027E7D4E924320C995B1A0D9962EB0102E6
:106980005B1B62F10002002A40DB039E3D464FF094
:10699000010839E7D4E93226D4F8B050BB1A5219AD
:1069A000B3FBF5F305FB03F346F100069B18A3EBDD
:1069B000070246F10006F62A04D8ED1846F1000653
:1069C000C84621E7204607F0CBFD04238DF8293087
:1069D000D4E93213D4F8B050D4F8A0200990521A58
:1069E000B2FBF5F26A43521843F100032046CDE9A9
:1069F0000C238DF8209007F0CFFD29468DF8280054
:106A000008A806F02CFCDDE90C56D9E7039ECDF86A
:106A100010903D464FF00108F6E604930DE7054659
:106A200047E7D4E92A3056E74FF0FF32134655E7DF
:106A3000CAE904568AF8008065E7B9F1000F7FF4CF
:106A400093AED4E932B1D4F8B080059118EB0B03C2
:106A5000A7EB0B05B5FBF8F508FB05F541F10006C2
:106A60002046ED18D4E9262346F1000607F069FD1B
:106A7000059908FB00F010EB0B0041F10001C4E99F
:106A800032012A463346204607F05BFD98E700BFF7
:106A90000040420F38B504460D4690F8F43023B15B
:106AA0004FF423712120FBF785FA11B940F28D21B3
:106AB000F8E70A490246F83003F018FFC4F8F0502E
:106AC0006B7B03F0FF0113B140F29321EAE784F8F6
:106AD000F6102046BDE8384007F035BF73E80000E7
